{
  "contractName": "DoggyProjectsV1",
  "abi": [
    {
      "stateMutability": "payable",
      "type": "fallback",
      "payable": true
    },
    {
      "inputs": [
        {
          "internalType": "address",
          "name": "",
          "type": "address"
        },
        {
          "internalType": "string",
          "name": "",
          "type": "string"
        }
      ],
      "name": "clientToProject",
      "outputs": [
        {
          "internalType": "uint256",
          "name": "requestTime",
          "type": "uint256"
        },
        {
          "internalType": "uint256",
          "name": "projectDurationInDays",
          "type": "uint256"
        },
        {
          "internalType": "uint256",
          "name": "totalFee",
          "type": "uint256"
        },
        {
          "internalType": "bool",
          "name": "started",
          "type": "bool"
        },
        {
          "internalType": "bool",
          "name": "firstPaymentMade",
          "type": "bool"
        },
        {
          "internalType": "bool",
          "name": "totalPaymentMade",
          "type": "bool"
        },
        {
          "internalType": "bool",
          "name": "clientDone",
          "type": "bool"
        },
        {
          "internalType": "bool",
          "name": "projectDone",
          "type": "bool"
        }
      ],
      "stateMutability": "view",
      "type": "function",
      "constant": true
    },
    {
      "inputs": [
        {
          "internalType": "address",
          "name": "",
          "type": "address"
        }
      ],
      "name": "lostPayments",
      "outputs": [
        {
          "internalType": "uint256",
          "name": "",
          "type": "uint256"
        }
      ],
      "stateMutability": "view",
      "type": "function",
      "constant": true
    },
    {
      "inputs": [],
      "name": "owner",
      "outputs": [
        {
          "internalType": "address payable",
          "name": "",
          "type": "address"
        }
      ],
      "stateMutability": "view",
      "type": "function",
      "constant": true
    },
    {
      "inputs": [
        {
          "internalType": "address",
          "name": "",
          "type": "address"
        },
        {
          "internalType": "string",
          "name": "",
          "type": "string"
        }
      ],
      "name": "payments",
      "outputs": [
        {
          "internalType": "uint256",
          "name": "",
          "type": "uint256"
        }
      ],
      "stateMutability": "view",
      "type": "function",
      "constant": true
    },
    {
      "inputs": [],
      "name": "totalFund",
      "outputs": [
        {
          "internalType": "uint256",
          "name": "",
          "type": "uint256"
        }
      ],
      "stateMutability": "view",
      "type": "function",
      "constant": true
    },
    {
      "stateMutability": "payable",
      "type": "receive",
      "payable": true
    },
    {
      "inputs": [
        {
          "internalType": "address",
          "name": "_owner",
          "type": "address"
        }
      ],
      "name": "initialize",
      "outputs": [],
      "stateMutability": "nonpayable",
      "type": "function"
    },
    {
      "inputs": [
        {
          "internalType": "address",
          "name": "_client",
          "type": "address"
        },
        {
          "internalType": "string",
          "name": "_projectName",
          "type": "string"
        },
        {
          "internalType": "uint256",
          "name": "_projectDurationInDays",
          "type": "uint256"
        },
        {
          "internalType": "uint256",
          "name": "_totalFee",
          "type": "uint256"
        }
      ],
      "name": "startProject",
      "outputs": [],
      "stateMutability": "nonpayable",
      "type": "function"
    },
    {
      "inputs": [
        {
          "internalType": "address",
          "name": "_client",
          "type": "address"
        },
        {
          "internalType": "string",
          "name": "_projectName",
          "type": "string"
        },
        {
          "internalType": "bool",
          "name": "_clientIsOwner",
          "type": "bool"
        }
      ],
      "name": "closeProject",
      "outputs": [],
      "stateMutability": "nonpayable",
      "type": "function"
    },
    {
      "inputs": [
        {
          "internalType": "address",
          "name": "_client",
          "type": "address"
        },
        {
          "internalType": "string",
          "name": "_projectName",
          "type": "string"
        }
      ],
      "name": "getProjectElapsedTime",
      "outputs": [
        {
          "internalType": "uint256",
          "name": "",
          "type": "uint256"
        }
      ],
      "stateMutability": "view",
      "type": "function",
      "constant": true
    },
    {
      "inputs": [
        {
          "internalType": "address",
          "name": "_client",
          "type": "address"
        },
        {
          "internalType": "string",
          "name": "_projectName",
          "type": "string"
        },
        {
          "internalType": "uint256",
          "name": "_addDays",
          "type": "uint256"
        }
      ],
      "name": "extendDueDate",
      "outputs": [],
      "stateMutability": "nonpayable",
      "type": "function"
    },
    {
      "inputs": [
        {
          "internalType": "string",
          "name": "_projectName",
          "type": "string"
        }
      ],
      "name": "makeAdvancePayment",
      "outputs": [],
      "stateMutability": "payable",
      "type": "function",
      "payable": true
    },
    {
      "inputs": [
        {
          "internalType": "string",
          "name": "_projectName",
          "type": "string"
        }
      ],
      "name": "makePayment",
      "outputs": [],
      "stateMutability": "payable",
      "type": "function",
      "payable": true
    },
    {
      "inputs": [
        {
          "internalType": "string",
          "name": "_projectName",
          "type": "string"
        }
      ],
      "name": "makeFinalPayment",
      "outputs": [],
      "stateMutability": "payable",
      "type": "function",
      "payable": true
    },
    {
      "inputs": [
        {
          "internalType": "address",
          "name": "_client",
          "type": "address"
        },
        {
          "internalType": "string",
          "name": "_projectName",
          "type": "string"
        }
      ],
      "name": "getCurrentPayment",
      "outputs": [
        {
          "internalType": "uint256",
          "name": "",
          "type": "uint256"
        }
      ],
      "stateMutability": "view",
      "type": "function",
      "constant": true
    },
    {
      "inputs": [
        {
          "internalType": "address",
          "name": "_client",
          "type": "address"
        },
        {
          "internalType": "string",
          "name": "_projectName",
          "type": "string"
        },
        {
          "internalType": "bool",
          "name": "_realTransfer",
          "type": "bool"
        }
      ],
      "name": "withdrawPayment",
      "outputs": [],
      "stateMutability": "nonpayable",
      "type": "function"
    },
    {
      "inputs": [
        {
          "internalType": "uint256",
          "name": "_amount",
          "type": "uint256"
        }
      ],
      "name": "withdrawFund",
      "outputs": [],
      "stateMutability": "nonpayable",
      "type": "function"
    },
    {
      "inputs": [
        {
          "internalType": "address",
          "name": "_client",
          "type": "address"
        },
        {
          "internalType": "string",
          "name": "_projectName",
          "type": "string"
        },
        {
          "internalType": "uint256",
          "name": "_amount",
          "type": "uint256"
        }
      ],
      "name": "transferLostFundTo",
      "outputs": [],
      "stateMutability": "nonpayable",
      "type": "function"
    },
    {
      "inputs": [
        {
          "internalType": "address",
          "name": "_client",
          "type": "address"
        },
        {
          "internalType": "string",
          "name": "_projectName",
          "type": "string"
        }
      ],
      "name": "cleanFailedProject",
      "outputs": [],
      "stateMutability": "payable",
      "type": "function",
      "payable": true
    }
  ],
  "bytecode": "0x608060405234801561001057600080fd5b50612ea0806100206000396000f3fe60806040526004361061010d5760003560e01c8063b319351311610095578063d856225311610064578063d8562253146103de578063e1fab47b1461041b578063f9e823e614610437578063fb0880d314610453578063fd6d45521461049057610157565b8063b319351314610347578063b3bee0a314610370578063c15d5f421461038c578063c4d66de8146103b557610157565b8063346901ea116100dc578063346901ea1461027157806361e05cb11461028d5780636f8f79af146102b65780638c1c6132146102f35780638da5cb5b1461031c57610157565b80630cee17251461019c5780630d4690d3146101c5578063100aca471461020957806327cb2d1a1461023457610157565b366101575734600460003373ffffffffffffffffffffffffffffffffffffffff1673ffffffffffffffffffffffffffffffffffffffff168152602001908152602001600020819055005b34600460003373ffffffffffffffffffffffffffffffffffffffff1673ffffffffffffffffffffffffffffffffffffffff168152602001908152602001600020819055005b3480156101a857600080fd5b506101c360048036038101906101be9190612133565b6104b9565b005b3480156101d157600080fd5b506101ec60048036038101906101e79190612304565b61063b565b60405161020098979695949392919061238a565b60405180910390f35b34801561021557600080fd5b5061021e6106e7565b60405161022b9190612408565b60405180910390f35b34801561024057600080fd5b5061025b60048036038101906102569190612304565b6106ed565b6040516102689190612408565b60405180910390f35b61028b60048036038101906102869190612423565b610728565b005b34801561029957600080fd5b506102b460048036038101906102af919061246c565b610913565b005b3480156102c257600080fd5b506102dd60048036038101906102d89190612304565b610b46565b6040516102ea9190612408565b60405180910390f35b3480156102ff57600080fd5b5061031a600480360381019061031591906124db565b610bac565b005b34801561032857600080fd5b50610331610d87565b60405161033e919061257f565b60405180910390f35b34801561035357600080fd5b5061036e6004803603810190610369919061246c565b610dab565b005b61038a60048036038101906103859190612423565b610ed4565b005b34801561039857600080fd5b506103b360048036038101906103ae91906125c6565b6110bf565b005b3480156103c157600080fd5b506103dc60048036038101906103d79190612635565b611514565b005b3480156103ea57600080fd5b5061040560048036038101906104009190612304565b6115c2565b6040516104129190612408565b60405180910390f35b61043560048036038101906104309190612304565b611636565b005b610451600480360381019061044c9190612423565b611be4565b005b34801561045f57600080fd5b5061047a60048036038101906104759190612635565b611f07565b6040516104879190612408565b60405180910390f35b34801561049c57600080fd5b506104b760048036038101906104b291906125c6565b611f1f565b005b60008054906101000a900473ffffffffffffffffffffffffffffffffffffffff1673ffffffffffffffffffffffffffffffffffffffff163373ffffffffffffffffffffffffffffffffffffffff161461051157600080fd5b806005541015610556576040517f08c379a000000000000000000000000000000000000000000000000000000000815260040161054d906126bf565b60405180910390fd5b80600554610564919061270e565b60058190555060008060009054906101000a900473ffffffffffffffffffffffffffffffffffffffff1673ffffffffffffffffffffffffffffffffffffffff16826040516105b190612773565b60006040518083038185875af1925050503d80600081146105ee576040519150601f19603f3d011682016040523d82523d6000602084013e6105f3565b606091505b5050905080610637576040517f08c379a000000000000000000000000000000000000000000000000000000000815260040161062e906127d4565b60405180910390fd5b5050565b600260205281600052604060002081805160208101820180518482526020830160208501208183528095505050505050600091509150508060000154908060010154908060020154908060030160009054906101000a900460ff16908060030160019054906101000a900460ff16908060030160029054906101000a900460ff16908060030160039054906101000a900460ff16908060030160049054906101000a900460ff16905088565b60055481565b600360205281600052604060002081805160208101820180518482526020830160208501208183528095505050505050600091509150505481565b600260003373ffffffffffffffffffffffffffffffffffffffff1673ffffffffffffffffffffffffffffffffffffffff16815260200190815260200160002081604051610775919061286e565b908152602001604051809103902060030160009054906101000a900460ff166107d3576040517f08c379a00000000000000000000000000000000000000000000000000000000081526004016107ca906128f7565b60405180910390fd5b34600360003373ffffffffffffffffffffffffffffffffffffffff1673ffffffffffffffffffffffffffffffffffffffff16815260200190815260200160002082604051610821919061286e565b90815260200160405180910390205461083a9190612917565b600360003373ffffffffffffffffffffffffffffffffffffffff1673ffffffffffffffffffffffffffffffffffffffff16815260200190815260200160002082604051610887919061286e565b9081526020016040518091039020819055506001600260003373ffffffffffffffffffffffffffffffffffffffff1673ffffffffffffffffffffffffffffffffffffffff168152602001908152602001600020826040516108e8919061286e565b908152602001604051809103902060030160016101000a81548160ff02191690831515021790555050565b60008054906101000a900473ffffffffffffffffffffffffffffffffffffffff1673ffffffffffffffffffffffffffffffffffffffff163373ffffffffffffffffffffffffffffffffffffffff161461096b57600080fd5b80600460008573ffffffffffffffffffffffffffffffffffffffff1673ffffffffffffffffffffffffffffffffffffffff1681526020019081526020016000205410156109ed576040517f08c379a00000000000000000000000000000000000000000000000000000000081526004016109e4906129b9565b60405180910390fd5b80600460008573ffffffffffffffffffffffffffffffffffffffff1673ffffffffffffffffffffffffffffffffffffffff16815260200190815260200160002054610a38919061270e565b600460008573ffffffffffffffffffffffffffffffffffffffff1673ffffffffffffffffffffffffffffffffffffffff1681526020019081526020016000208190555080600360008573ffffffffffffffffffffffffffffffffffffffff1673ffffffffffffffffffffffffffffffffffffffff16815260200190815260200160002083604051610ac9919061286e565b908152602001604051809103902054610ae29190612917565b600360008573ffffffffffffffffffffffffffffffffffffffff1673ffffffffffffffffffffffffffffffffffffffff16815260200190815260200160002083604051610b2f919061286e565b908152602001604051809103902081905550505050565b6000600360008473ffffffffffffffffffffffffffffffffffffffff1673ffffffffffffffffffffffffffffffffffffffff16815260200190815260200160002082604051610b95919061286e565b908152602001604051809103902054905092915050565b60008054906101000a900473ffffffffffffffffffffffffffffffffffffffff1673ffffffffffffffffffffffffffffffffffffffff163373ffffffffffffffffffffffffffffffffffffffff1614610c0457600080fd5b60405180610100016040528042815260200183815260200182815260200160011515815260200160001515815260200160001515815260200160001515815260200160001515815250600260008673ffffffffffffffffffffffffffffffffffffffff1673ffffffffffffffffffffffffffffffffffffffff16815260200190815260200160002084604051610c9a919061286e565b908152602001604051809103902060008201518160000155602082015181600101556040820151816002015560608201518160030160006101000a81548160ff02191690831515021790555060808201518160030160016101000a81548160ff02191690831515021790555060a08201518160030160026101000a81548160ff02191690831515021790555060c08201518160030160036101000a81548160ff02191690831515021790555060e08201518160030160046101000a81548160ff02191690831515021790555090505060016000815480929190610d7c906129d9565b919050555050505050565b60008054906101000a900473ffffffffffffffffffffffffffffffffffffffff1681565b60008054906101000a900473ffffffffffffffffffffffffffffffffffffffff1673ffffffffffffffffffffffffffffffffffffffff163373ffffffffffffffffffffffffffffffffffffffff1614610e0357600080fd5b80600260008573ffffffffffffffffffffffffffffffffffffffff1673ffffffffffffffffffffffffffffffffffffffff16815260200190815260200160002083604051610e51919061286e565b908152602001604051809103902060010154610e6d9190612917565b600260008573ffffffffffffffffffffffffffffffffffffffff1673ffffffffffffffffffffffffffffffffffffffff16815260200190815260200160002083604051610eba919061286e565b908152602001604051809103902060010181905550505050565b600260003373ffffffffffffffffffffffffffffffffffffffff1673ffffffffffffffffffffffffffffffffffffffff16815260200190815260200160002081604051610f21919061286e565b908152602001604051809103902060030160009054906101000a900460ff16610f7f576040517f08c379a0000000000000000000000000000000000000000000000000000000008152600401610f76906128f7565b60405180910390fd5b34600360003373ffffffffffffffffffffffffffffffffffffffff1673ffffffffffffffffffffffffffffffffffffffff16815260200190815260200160002082604051610fcd919061286e565b908152602001604051809103902054610fe69190612917565b600360003373ffffffffffffffffffffffffffffffffffffffff1673ffffffffffffffffffffffffffffffffffffffff16815260200190815260200160002082604051611033919061286e565b9081526020016040518091039020819055506001600260003373ffffffffffffffffffffffffffffffffffffffff1673ffffffffffffffffffffffffffffffffffffffff16815260200190815260200160002082604051611094919061286e565b908152602001604051809103902060030160026101000a81548160ff02191690831515021790555050565b60008054906101000a900473ffffffffffffffffffffffffffffffffffffffff1673ffffffffffffffffffffffffffffffffffffffff163373ffffffffffffffffffffffffffffffffffffffff161461111757600080fd5b600260008473ffffffffffffffffffffffffffffffffffffffff1673ffffffffffffffffffffffffffffffffffffffff16815260200190815260200160002082604051611164919061286e565b908152602001604051809103902060030160039054906101000a900460ff166111c2576040517f08c379a00000000000000000000000000000000000000000000000000000000081526004016111b990612a6d565b60405180910390fd5b600260008473ffffffffffffffffffffffffffffffffffffffff1673ffffffffffffffffffffffffffffffffffffffff1681526020019081526020016000208260405161120f919061286e565b908152602001604051809103902060030160049054906101000a900460ff1661126d576040517f08c379a000000000000000000000000000000000000000000000000000000000815260040161126490612a6d565b60405180910390fd5b6000600360008573ffffffffffffffffffffffffffffffffffffffff1673ffffffffffffffffffffffffffffffffffffffff168152602001908152602001600020836040516112bc919061286e565b90815260200160405180910390205490506000600360008673ffffffffffffffffffffffffffffffffffffffff1673ffffffffffffffffffffffffffffffffffffffff1681526020019081526020016000208460405161131c919061286e565b908152602001604051809103902081905550600260008573ffffffffffffffffffffffffffffffffffffffff1673ffffffffffffffffffffffffffffffffffffffff1681526020019081526020016000208360405161137b919061286e565b9081526020016040518091039020600080820160009055600182016000905560028201600090556003820160006101000a81549060ff02191690556003820160016101000a81549060ff02191690556003820160026101000a81549060ff02191690556003820160036101000a81549060ff02191690556003820160046101000a81549060ff021916905550506001600081548092919061141b90612a8d565b919050555081156114f95760008060009054906101000a900473ffffffffffffffffffffffffffffffffffffffff1673ffffffffffffffffffffffffffffffffffffffff168260405161146d90612773565b60006040518083038185875af1925050503d80600081146114aa576040519150601f19603f3d011682016040523d82523d6000602084013e6114af565b606091505b50509050806114f3576040517f08c379a00000000000000000000000000000000000000000000000000000000081526004016114ea906127d4565b60405180910390fd5b5061150e565b806005546115079190612917565b6005819055505b50505050565b600660009054906101000a900460ff1615611564576040517f08c379a000000000000000000000000000000000000000000000000000000000815260040161155b90612b02565b60405180910390fd5b6001600660006101000a81548160ff021916908315150217905550806000806101000a81548173ffffffffffffffffffffffffffffffffffffffff021916908373ffffffffffffffffffffffffffffffffffffffff16021790555050565b6000600260008473ffffffffffffffffffffffffffffffffffffffff1673ffffffffffffffffffffffffffffffffffffffff16815260200190815260200160002082604051611611919061286e565b9081526020016040518091039020600001544261162e919061270e565b905092915050565b60008054906101000a900473ffffffffffffffffffffffffffffffffffffffff1673ffffffffffffffffffffffffffffffffffffffff163373ffffffffffffffffffffffffffffffffffffffff1614806116bb57508173ffffffffffffffffffffffffffffffffffffffff163373ffffffffffffffffffffffffffffffffffffffff16145b6116fa576040517f08c379a00000000000000000000000000000000000000000000000000000000081526004016116f190612b94565b60405180910390fd5b6000600260008473ffffffffffffffffffffffffffffffffffffffff1673ffffffffffffffffffffffffffffffffffffffff16815260200190815260200160002082604051611749919061286e565b9081526020016040518091039020600001549050600061176984846115c2565b90506000600260008673ffffffffffffffffffffffffffffffffffffffff1673ffffffffffffffffffffffffffffffffffffffff168152602001908152602001600020846040516117ba919061286e565b9081526020016040518091039020600101549050603c806018836117de9190612bb4565b6117e89190612bb4565b6117f29190612bb4565b821015611834576040517f08c379a000000000000000000000000000000000000000000000000000000000815260040161182b90612c5a565b60405180910390fd5b60006205460090508083856118499190612917565b42611854919061270e565b1015611895576040517f08c379a000000000000000000000000000000000000000000000000000000000815260040161188c90612cec565b60405180910390fd5b6000600360008873ffffffffffffffffffffffffffffffffffffffff1673ffffffffffffffffffffffffffffffffffffffff168152602001908152602001600020866040516118e4919061286e565b90815260200160405180910390205490506000600360008973ffffffffffffffffffffffffffffffffffffffff1673ffffffffffffffffffffffffffffffffffffffff16815260200190815260200160002087604051611944919061286e565b908152602001604051809103902081905550600260008873ffffffffffffffffffffffffffffffffffffffff1673ffffffffffffffffffffffffffffffffffffffff168152602001908152602001600020866040516119a3919061286e565b9081526020016040518091039020600080820160009055600182016000905560028201600090556003820160006101000a81549060ff02191690556003820160016101000a81549060ff02191690556003820160026101000a81549060ff02191690556003820160036101000a81549060ff02191690556003820160046101000a81549060ff0219169055505060016000815480929190611a4390612a8d565b919050555060008773ffffffffffffffffffffffffffffffffffffffff16600283611a6e9190612d3b565b604051611a7a90612773565b60006040518083038185875af1925050503d8060008114611ab7576040519150601f19603f3d011682016040523d82523d6000602084013e611abc565b606091505b5050905080611b00576040517f08c379a0000000000000000000000000000000000000000000000000000000008152600401611af790612dde565b60405180910390fd5b60008060009054906101000a900473ffffffffffffffffffffffffffffffffffffffff1673ffffffffffffffffffffffffffffffffffffffff16600284611b479190612d3b565b604051611b5390612773565b60006040518083038185875af1925050503d8060008114611b90576040519150601f19603f3d011682016040523d82523d6000602084013e611b95565b606091505b5050905080611bd9576040517f08c379a0000000000000000000000000000000000000000000000000000000008152600401611bd090612e4a565b60405180910390fd5b505050505050505050565b600260003373ffffffffffffffffffffffffffffffffffffffff1673ffffffffffffffffffffffffffffffffffffffff16815260200190815260200160002081604051611c31919061286e565b908152602001604051809103902060030160009054906101000a900460ff16611c8f576040517f08c379a0000000000000000000000000000000000000000000000000000000008152600401611c86906128f7565b60405180910390fd5b34600360003373ffffffffffffffffffffffffffffffffffffffff1673ffffffffffffffffffffffffffffffffffffffff16815260200190815260200160002082604051611cdd919061286e565b908152602001604051809103902054611cf69190612917565b600360003373ffffffffffffffffffffffffffffffffffffffff1673ffffffffffffffffffffffffffffffffffffffff16815260200190815260200160002082604051611d43919061286e565b9081526020016040518091039020819055506001600260003373ffffffffffffffffffffffffffffffffffffffff1673ffffffffffffffffffffffffffffffffffffffff16815260200190815260200160002082604051611da4919061286e565b908152602001604051809103902060030160016101000a81548160ff021916908315150217905550600360003373ffffffffffffffffffffffffffffffffffffffff1673ffffffffffffffffffffffffffffffffffffffff16815260200190815260200160002081604051611e19919061286e565b908152602001604051809103902054600260003373ffffffffffffffffffffffffffffffffffffffff1673ffffffffffffffffffffffffffffffffffffffff16815260200190815260200160002082604051611e75919061286e565b90815260200160405180910390206002015411611f04576001600260003373ffffffffffffffffffffffffffffffffffffffff1673ffffffffffffffffffffffffffffffffffffffff16815260200190815260200160002082604051611edb919061286e565b908152602001604051809103902060030160026101000a81548160ff0219169083151502179055505b50565b60046020528060005260406000206000915090505481565b60008054906101000a900473ffffffffffffffffffffffffffffffffffffffff1673ffffffffffffffffffffffffffffffffffffffff163373ffffffffffffffffffffffffffffffffffffffff1614611fee576001600260003373ffffffffffffffffffffffffffffffffffffffff1673ffffffffffffffffffffffffffffffffffffffff16815260200190815260200160002083604051611fc1919061286e565b908152602001604051809103902060030160036101000a81548160ff021916908315150217905550612066565b6001600260008573ffffffffffffffffffffffffffffffffffffffff1673ffffffffffffffffffffffffffffffffffffffff1681526020019081526020016000208360405161203d919061286e565b908152602001604051809103902060030160046101000a81548160ff0219169083151502179055505b80156120e4576001600260003373ffffffffffffffffffffffffffffffffffffffff1673ffffffffffffffffffffffffffffffffffffffff168152602001908152602001600020836040516120bb919061286e565b908152602001604051809103902060030160036101000a81548160ff0219169083151502179055505b505050565b6000604051905090565b600080fd5b600080fd5b6000819050919050565b612110816120fd565b811461211b57600080fd5b50565b60008135905061212d81612107565b92915050565b600060208284031215612149576121486120f3565b5b60006121578482850161211e565b91505092915050565b600073ffffffffffffffffffffffffffffffffffffffff82169050919050565b600061218b82612160565b9050919050565b61219b81612180565b81146121a657600080fd5b50565b6000813590506121b881612192565b92915050565b600080fd5b600080fd5b6000601f19601f8301169050919050565b7f4e487b7100000000000000000000000000000000000000000000000000000000600052604160045260246000fd5b612211826121c8565b810181811067ffffffffffffffff821117156122305761222f6121d9565b5b80604052505050565b60006122436120e9565b905061224f8282612208565b919050565b600067ffffffffffffffff82111561226f5761226e6121d9565b5b612278826121c8565b9050602081019050919050565b82818337600083830152505050565b60006122a76122a284612254565b612239565b9050828152602081018484840111156122c3576122c26121c3565b5b6122ce848285612285565b509392505050565b600082601f8301126122eb576122ea6121be565b5b81356122fb848260208601612294565b91505092915050565b6000806040838503121561231b5761231a6120f3565b5b6000612329858286016121a9565b925050602083013567ffffffffffffffff81111561234a576123496120f8565b5b612356858286016122d6565b9150509250929050565b612369816120fd565b82525050565b60008115159050919050565b6123848161236f565b82525050565b6000610100820190506123a0600083018b612360565b6123ad602083018a612360565b6123ba6040830189612360565b6123c7606083018861237b565b6123d4608083018761237b565b6123e160a083018661237b565b6123ee60c083018561237b565b6123fb60e083018461237b565b9998505050505050505050565b600060208201905061241d6000830184612360565b92915050565b600060208284031215612439576124386120f3565b5b600082013567ffffffffffffffff811115612457576124566120f8565b5b612463848285016122d6565b91505092915050565b600080600060608486031215612485576124846120f3565b5b6000612493868287016121a9565b935050602084013567ffffffffffffffff8111156124b4576124b36120f8565b5b6124c0868287016122d6565b92505060406124d18682870161211e565b9150509250925092565b600080600080608085870312156124f5576124f46120f3565b5b6000612503878288016121a9565b945050602085013567ffffffffffffffff811115612524576125236120f8565b5b612530878288016122d6565b93505060406125418782880161211e565b92505060606125528782880161211e565b91505092959194509250565b600061256982612160565b9050919050565b6125798161255e565b82525050565b60006020820190506125946000830184612570565b92915050565b6125a38161236f565b81146125ae57600080fd5b50565b6000813590506125c08161259a565b92915050565b6000806000606084860312156125df576125de6120f3565b5b60006125ed868287016121a9565b935050602084013567ffffffffffffffff81111561260e5761260d6120f8565b5b61261a868287016122d6565b925050604061262b868287016125b1565b9150509250925092565b60006020828403121561264b5761264a6120f3565b5b6000612659848285016121a9565b91505092915050565b600082825260208201905092915050565b7f6e6f7420656e6f7567682066756e640000000000000000000000000000000000600082015250565b60006126a9600f83612662565b91506126b482612673565b602082019050919050565b600060208201905081810360008301526126d88161269c565b9050919050565b7f4e487b7100000000000000000000000000000000000000000000000000000000600052601160045260246000fd5b6000612719826120fd565b9150612724836120fd565b925082821015612737576127366126df565b5b828203905092915050565b600081905092915050565b50565b600061275d600083612742565b91506127688261274d565b600082019050919050565b600061277e82612750565b9150819050919050565b7f66756e64207769746864726177616c206279206f776e6572206661696c656400600082015250565b60006127be601f83612662565b91506127c982612788565b602082019050919050565b600060208201905081810360008301526127ed816127b1565b9050919050565b600081519050919050565b600081905092915050565b60005b8381101561282857808201518184015260208101905061280d565b83811115612837576000848401525b50505050565b6000612848826127f4565b61285281856127ff565b935061286281856020860161280a565b80840191505092915050565b600061287a828461283d565b915081905092915050565b7f746869732070726f6a65637420686173206e6f74206265656e2073746172746560008201527f6420796574000000000000000000000000000000000000000000000000000000602082015250565b60006128e1602583612662565b91506128ec82612885565b604082019050919050565b60006020820190508181036000830152612910816128d4565b9050919050565b6000612922826120fd565b915061292d836120fd565b9250827fffffffffffffffffffffffffffffffffffffffffffffffffffffffffffffffff03821115612962576129616126df565b5b828201905092915050565b7f6e6f7420656e6f756768206c6f7374207061796d656e74730000000000000000600082015250565b60006129a3601883612662565b91506129ae8261296d565b602082019050919050565b600060208201905081810360008301526129d281612996565b9050919050565b60006129e4826120fd565b91507fffffffffffffffffffffffffffffffffffffffffffffffffffffffffffffffff8203612a1657612a156126df565b5b600182019050919050565b7f70726f6a656374206973206e6f7420646f6e6520796574000000000000000000600082015250565b6000612a57601783612662565b9150612a6282612a21565b602082019050919050565b60006020820190508181036000830152612a8681612a4a565b9050919050565b6000612a98826120fd565b915060008203612aab57612aaa6126df565b5b600182039050919050565b7f436f6e747261637420697320616c726561647920696e697469616c697a656400600082015250565b6000612aec601f83612662565b9150612af782612ab6565b602082019050919050565b60006020820190508181036000830152612b1b81612adf565b9050919050565b7f6f6e6c79206f776e6572206f722070726f6a65637420636c69656e742063616e60008201527f2063616c6c20746869732066756e6374696f6e00000000000000000000000000602082015250565b6000612b7e603383612662565b9150612b8982612b22565b604082019050919050565b60006020820190508181036000830152612bad81612b71565b9050919050565b6000612bbf826120fd565b9150612bca836120fd565b9250817fffffffffffffffffffffffffffffffffffffffffffffffffffffffffffffffff0483118215151615612c0357612c026126df565b5b828202905092915050565b7f70726f6a656374206973206e6f74206f76657220796574000000000000000000600082015250565b6000612c44601783612662565b9150612c4f82612c0e565b602082019050919050565b60006020820190508181036000830152612c7381612c37565b9050919050565b7f63616e6e6f7420636c65616e2070726f6a656374207965742c206e656564207460008201527f6f20776169742034206461797300000000000000000000000000000000000000602082015250565b6000612cd6602d83612662565b9150612ce182612c7a565b604082019050919050565b60006020820190508181036000830152612d0581612cc9565b9050919050565b7f4e487b7100000000000000000000000000000000000000000000000000000000600052601260045260246000fd5b6000612d46826120fd565b9150612d51836120fd565b925082612d6157612d60612d0c565b5b828204905092915050565b7f7061796d656e74207472616e7366657220746f20636c69656e74206661696c6560008201527f6400000000000000000000000000000000000000000000000000000000000000602082015250565b6000612dc8602183612662565b9150612dd382612d6c565b604082019050919050565b60006020820190508181036000830152612df781612dbb565b9050919050565b7f7061796d656e74207472616e7366657220746f206f776e6572206661696c6564600082015250565b6000612e34602083612662565b9150612e3f82612dfe565b602082019050919050565b60006020820190508181036000830152612e6381612e27565b905091905056fea264697066735822122053309b4b86a85fca378dd741d85c9ecb4b0f8ebc1c09e5b1ec1953ef4cf137ef64736f6c634300080d0033",
  "immutableReferences": {},
  "source": "// SPDX-License-Identifier: MIT\npragma solidity >=0.4.21 <8.10.0;\n\ncontract DoggyProjectsV1 {\n    //   .   \n    address payable public owner;\n\n    //    \n    uint256 ongoingProjects;\n\n    struct ProjectStatus {\n        uint256 requestTime;\n        uint256 projectDurationInDays;\n        uint256 totalFee;\n        bool started;\n        bool firstPaymentMade;\n        bool totalPaymentMade;\n        bool clientDone;\n        bool projectDone;\n    }\n\n    mapping(address => mapping(string => ProjectStatus)) public clientToProject;\n    mapping(address => mapping(string => uint256)) public payments;\n\n    // makeAdvancePayment, makeFinalPayment     ,\n    // lostPayments   owner      \n    mapping(address => uint256) public lostPayments;\n\n    uint256 public totalFund;\n\n    bool private initialized;\n\n    function initialize(address _owner) public {\n        require(!initialized, \"Contract is already initialized\");\n        initialized = true;\n        owner = payable(_owner);\n    }\n\n    modifier onlyOwner() {\n        require(msg.sender == owner);\n        _;\n    }\n\n    function startProject(\n        address _client,\n        string memory _projectName,\n        uint256 _projectDurationInDays,\n        uint256 _totalFee\n    ) public onlyOwner {\n        // contract owner    (   )\n        //      \n        clientToProject[_client][_projectName] = ProjectStatus(\n            block.timestamp,\n            _projectDurationInDays,\n            _totalFee,\n            true,\n            false,\n            false,\n            false,\n            false\n        );\n        ongoingProjects++;\n    }\n\n    function closeProject(\n        address _client,\n        string memory _projectName,\n        bool _clientIsOwner\n    ) public {\n        //      \n        //     owner    .\n        if (msg.sender != owner) {\n            // owner    clientDone   \n            clientToProject[msg.sender][_projectName].clientDone = true;\n        } else {\n            clientToProject[_client][_projectName].projectDone = true;\n        }\n\n        if (_clientIsOwner) {\n            // client owner    .\n            //           \n            clientToProject[msg.sender][_projectName].clientDone = true;\n        }\n    }\n\n    function getProjectElapsedTime(address _client, string memory _projectName)\n        public\n        view\n        returns (uint256)\n    {\n        return\n            block.timestamp -\n            clientToProject[_client][_projectName].requestTime;\n    }\n\n    function extendDueDate(\n        address _client,\n        string memory _projectName,\n        uint256 _addDays\n    ) public onlyOwner {\n        //    owner   \n        clientToProject[_client][_projectName].projectDurationInDays =\n            clientToProject[_client][_projectName].projectDurationInDays +\n            _addDays;\n    }\n\n    function makeAdvancePayment(string memory _projectName) public payable {\n        //  :    Klay   .\n        require(\n            clientToProject[msg.sender][_projectName].started,\n            \"this project has not been started yet\"\n        );\n        payments[msg.sender][_projectName] =\n            payments[msg.sender][_projectName] +\n            msg.value;\n        clientToProject[msg.sender][_projectName].firstPaymentMade = true;\n    }\n\n    function makePayment(string memory _projectName) public payable {\n        //       \n        require(\n            clientToProject[msg.sender][_projectName].started,\n            \"this project has not been started yet\"\n        );\n        payments[msg.sender][_projectName] =\n            payments[msg.sender][_projectName] +\n            msg.value;\n        clientToProject[msg.sender][_projectName].firstPaymentMade = true;\n        //        .\n        if (\n            clientToProject[msg.sender][_projectName].totalFee <=\n            payments[msg.sender][_projectName]\n        ) {\n            clientToProject[msg.sender][_projectName].totalPaymentMade = true;\n        }\n    }\n\n    function makeFinalPayment(string memory _projectName) public payable {\n        //  :    Klay   .\n        require(\n            clientToProject[msg.sender][_projectName].started,\n            \"this project has not been started yet\"\n        );\n        payments[msg.sender][_projectName] =\n            payments[msg.sender][_projectName] +\n            msg.value;\n        clientToProject[msg.sender][_projectName].totalPaymentMade = true;\n    }\n\n    function getCurrentPayment(address _client, string memory _projectName)\n        public\n        view\n        returns (uint256)\n    {\n        return payments[_client][_projectName];\n    }\n\n    function withdrawPayment(\n        address _client,\n        string memory _projectName,\n        bool _realTransfer\n    ) public onlyOwner {\n        //    closeProject         .\n        require(\n            clientToProject[_client][_projectName].clientDone,\n            \"project is not done yet\"\n        );\n        require(\n            clientToProject[_client][_projectName].projectDone,\n            \"project is not done yet\"\n        );\n\n        uint256 transferAmount = payments[_client][_projectName];\n\n        payments[_client][_projectName] = 0;\n        delete clientToProject[_client][_projectName];\n        ongoingProjects--;\n\n        // _realTransfer      . ( withdraw )\n        if (_realTransfer) {\n            (bool success, ) = owner.call{value: transferAmount}(\"\");\n            require(success, \"fund withdrawal by owner failed\");\n        } else {\n            totalFund = totalFund + transferAmount;\n        }\n    }\n\n    function withdrawFund(uint256 _amount) public onlyOwner {\n        require(totalFund >= _amount, \"not enough fund\");\n        totalFund = totalFund - _amount;\n        (bool success, ) = owner.call{value: _amount}(\"\");\n        require(success, \"fund withdrawal by owner failed\");\n    }\n\n    receive() external payable {\n        lostPayments[msg.sender] = msg.value;\n    }\n\n    fallback() external payable {\n        lostPayments[msg.sender] = msg.value;\n    }\n\n    function transferLostFundTo(\n        address _client,\n        string memory _projectName,\n        uint256 _amount\n    ) public onlyOwner {\n        //   payment     Klay   owner    \n        // lostPayment  .\n        require(lostPayments[_client] >= _amount, \"not enough lost payments\");\n        lostPayments[_client] = lostPayments[_client] - _amount;\n        payments[_client][_projectName] =\n            payments[_client][_projectName] +\n            _amount;\n    }\n\n    function cleanFailedProject(address _client, string memory _projectName)\n        public\n        payable\n    {\n        //    done status  ,\n        // 1. client    ,\n        // 2. contract owner  withdraw  ,\n        // 3.     .\n        // 1, 2         contract owner .\n        // 3              payment   50 transfer.\n\n        //    4        50% owner / client \n        require(\n            msg.sender == owner || msg.sender == _client,\n            \"only owner or project client can call this function\"\n        );\n\n        uint256 startTime = clientToProject[_client][_projectName].requestTime;\n        uint256 elapsedTime = getProjectElapsedTime(_client, _projectName);\n        uint256 projectDuration = clientToProject[_client][_projectName]\n            .projectDurationInDays;\n        require(\n            elapsedTime >= projectDuration * 24 * 60 * 60,\n            \"project is not over yet\"\n        );\n\n        uint256 cutTime = 4 * 24 * 60 * 60;\n        require(\n            block.timestamp - (startTime + elapsedTime) >= cutTime,\n            \"cannot clean project yet, need to wait 4 days\"\n        );\n\n        // client 50%  \n        uint256 payment = payments[_client][_projectName];\n\n        payments[_client][_projectName] = 0;\n        delete clientToProject[_client][_projectName];\n        ongoingProjects--;\n\n        (bool success1, ) = payable(_client).call{value: payment / 2}(\"\");\n        require(success1, \"payment transfer to client failed\");\n\n        (bool success2, ) = owner.call{value: payment / 2}(\"\");\n        require(success2, \"payment transfer to owner failed\");\n    }\n}\n",
  "sourcePath": "/Users/peepee/Desktop/PROJECTS/doggy_contracts/contracts/DoggyProjectsV1.sol",
  "compiler": {
    "name": "solc",
    "version": "0.8.13+commit.abaa5c0e.Emscripten.clang"
  },
  "schemaVersion": "3.4.6",
  "updatedAt": "2022-04-07T13:03:28.586Z",
  "networkType": "ethereum",
  "devdoc": {
    "kind": "dev",
    "methods": {},
    "version": 1
  },
  "userdoc": {
    "kind": "user",
    "methods": {},
    "version": 1
  }
}